{
  "abi": [
    {
      "inputs": [],
      "stateMutability": "nonpayable",
      "type": "constructor"
    },
    {
      "anonymous": false,
      "inputs": [
        {
          "indexed": false,
          "internalType": "address",
          "name": "token",
          "type": "address"
        },
        {
          "indexed": false,
          "internalType": "address",
          "name": "depositor",
          "type": "address"
        }
      ],
      "name": "DepositorEnabled",
      "type": "event"
    },
    {
      "anonymous": false,
      "inputs": [
        {
          "indexed": false,
          "internalType": "address",
          "name": "gauge",
          "type": "address"
        }
      ],
      "name": "GaugeDisabled",
      "type": "event"
    },
    {
      "anonymous": false,
      "inputs": [
        {
          "indexed": false,
          "internalType": "address",
          "name": "gauge",
          "type": "address"
        }
      ],
      "name": "GaugeEnabled",
      "type": "event"
    },
    {
      "anonymous": false,
      "inputs": [
        {
          "indexed": false,
          "internalType": "address",
          "name": "oldG",
          "type": "address"
        },
        {
          "indexed": false,
          "internalType": "address",
          "name": "newG",
          "type": "address"
        }
      ],
      "name": "GovernanceChanged",
      "type": "event"
    },
    {
      "anonymous": false,
      "inputs": [
        {
          "indexed": false,
          "internalType": "address",
          "name": "token",
          "type": "address"
        },
        {
          "indexed": false,
          "internalType": "uint256",
          "name": "amount",
          "type": "uint256"
        }
      ],
      "name": "Recovered",
      "type": "event"
    },
    {
      "anonymous": false,
      "inputs": [
        {
          "indexed": false,
          "internalType": "address[]",
          "name": "gauges",
          "type": "address[]"
        }
      ],
      "name": "RewardsClaimed",
      "type": "event"
    },
    {
      "inputs": [],
      "name": "SDT",
      "outputs": [
        {
          "internalType": "address",
          "name": "",
          "type": "address"
        }
      ],
      "stateMutability": "view",
      "type": "function"
    },
    {
      "inputs": [
        {
          "internalType": "address",
          "name": "_token",
          "type": "address"
        },
        {
          "internalType": "address",
          "name": "_depositor",
          "type": "address"
        }
      ],
      "name": "addDepositor",
      "outputs": [],
      "stateMutability": "nonpayable",
      "type": "function"
    },
    {
      "inputs": [
        {
          "internalType": "address[]",
          "name": "_gauges",
          "type": "address[]"
        },
        {
          "components": [
            {
              "internalType": "bool[]",
              "name": "locked",
              "type": "bool[]"
            },
            {
              "internalType": "bool[]",
              "name": "staked",
              "type": "bool[]"
            },
            {
              "internalType": "bool",
              "name": "lockSDT",
              "type": "bool"
            }
          ],
          "internalType": "struct ClaimRewardModular.LockStatus",
          "name": "_lockStatus",
          "type": "tuple"
        }
      ],
      "name": "claimAndLock",
      "outputs": [],
      "stateMutability": "nonpayable",
      "type": "function"
    },
    {
      "inputs": [
        {
          "internalType": "address[]",
          "name": "_gauges",
          "type": "address[]"
        }
      ],
      "name": "claimRewards",
      "outputs": [],
      "stateMutability": "nonpayable",
      "type": "function"
    },
    {
      "inputs": [
        {
          "internalType": "address",
          "name": "",
          "type": "address"
        }
      ],
      "name": "depositors",
      "outputs": [
        {
          "internalType": "address",
          "name": "",
          "type": "address"
        }
      ],
      "stateMutability": "view",
      "type": "function"
    },
    {
      "inputs": [],
      "name": "depositorsCount",
      "outputs": [
        {
          "internalType": "uint256",
          "name": "",
          "type": "uint256"
        }
      ],
      "stateMutability": "view",
      "type": "function"
    },
    {
      "inputs": [
        {
          "internalType": "address",
          "name": "",
          "type": "address"
        }
      ],
      "name": "depositorsIndex",
      "outputs": [
        {
          "internalType": "uint256",
          "name": "",
          "type": "uint256"
        }
      ],
      "stateMutability": "view",
      "type": "function"
    },
    {
      "inputs": [
        {
          "internalType": "address",
          "name": "_gauge",
          "type": "address"
        }
      ],
      "name": "disableGauge",
      "outputs": [],
      "stateMutability": "nonpayable",
      "type": "function"
    },
    {
      "inputs": [
        {
          "internalType": "address",
          "name": "_gauge",
          "type": "address"
        }
      ],
      "name": "enableGauge",
      "outputs": [],
      "stateMutability": "nonpayable",
      "type": "function"
    },
    {
      "inputs": [
        {
          "internalType": "address",
          "name": "",
          "type": "address"
        }
      ],
      "name": "gauges",
      "outputs": [
        {
          "internalType": "uint256",
          "name": "",
          "type": "uint256"
        }
      ],
      "stateMutability": "view",
      "type": "function"
    },
    {
      "inputs": [],
      "name": "governance",
      "outputs": [
        {
          "internalType": "address",
          "name": "",
          "type": "address"
        }
      ],
      "stateMutability": "view",
      "type": "function"
    },
    {
      "inputs": [
        {
          "internalType": "address",
          "name": "_token",
          "type": "address"
        },
        {
          "internalType": "uint256",
          "name": "_amount",
          "type": "uint256"
        },
        {
          "internalType": "address",
          "name": "_recipient",
          "type": "address"
        }
      ],
      "name": "rescueERC20",
      "outputs": [],
      "stateMutability": "nonpayable",
      "type": "function"
    },
    {
      "inputs": [
        {
          "internalType": "address",
          "name": "_governance",
          "type": "address"
        }
      ],
      "name": "setGovernance",
      "outputs": [],
      "stateMutability": "nonpayable",
      "type": "function"
    },
    {
      "inputs": [],
      "name": "veSDT",
      "outputs": [
        {
          "internalType": "address",
          "name": "",
          "type": "address"
        }
      ],
      "stateMutability": "view",
      "type": "function"
    }
  ],
  "bytecode": {
    "object": "0x608060405234801561001057600080fd5b50600080546001600160a01b03191633179055611969806100326000396000f3fe608060405234801561001057600080fd5b50600436106100ea5760003560e01c8063ab033ea91161008c578063ca36418b11610066578063ca36418b146101ed578063e9de65fd1461020d578063eed75f6d14610220578063f9f031df1461024957600080fd5b8063ab033ea91461019f578063b9a09fd5146101b2578063ba32c619146101d257600080fd5b8063202d31b7116100c8578063202d31b71461012a5780633a561ae2146101625780635aa6e6751461017957806377662ffc1461018c57600080fd5b806304e29ee9146100ef578063084b86fe146101045780632009c4b114610117575b600080fd5b6101026100fd3660046113d3565b61025c565b005b6101026101123660046113d3565b610377565b610102610125366004611582565b610485565b610145730c30476f66034e11782938df8e4384970b6c9e8a81565b6040516001600160a01b0390911681526020015b60405180910390f35b61016b60045481565b604051908152602001610159565b600054610145906001600160a01b031681565b61010261019a366004611644565b610cdb565b6101026101ad3660046113d3565b610d7e565b61016b6101c03660046113d3565b60036020526000908152604090205481565b6101457373968b9a57c6e53d41345fd57a6e6ae27d6cdb2f81565b61016b6101fb3660046113d3565b60026020526000908152604090205481565b61010261021b366004611686565b610e37565b61014561022e3660046113d3565b6001602052600090815260409020546001600160a01b031681565b6101026102573660046116bf565b610f9b565b6000546001600160a01b0316331461028f5760405162461bcd60e51b815260040161028690611734565b60405180910390fd5b6001600160a01b0381166102b55760405162461bcd60e51b815260040161028690611752565b6001600160a01b0381166000908152600360205260409020541561030d5760405162461bcd60e51b815260206004820152600f60248201526e185b1c9958591e48195b98589b1959608a1b6044820152606401610286565b6001600160a01b0381166000908152600360205260408120805490919061033390611797565b909155506040516001600160a01b03821681527fd588143c0e7170a40c980934518322d8cf93a066a70f87c65b4bdb87e88efc67906020015b60405180910390a150565b6000546001600160a01b031633146103a15760405162461bcd60e51b815260040161028690611734565b6001600160a01b0381166103c75760405162461bcd60e51b815260040161028690611752565b6001600160a01b0381166000908152600360205260409020546001146104225760405162461bcd60e51b815260206004820152601060248201526f185b1c9958591e48191a5cd8589b195960821b6044820152606401610286565b6001600160a01b03811660009081526003602052604081208054909190610448906117b0565b909155506040516001600160a01b03821681527fdc080beba4e2a6fbff49d578c14c58736d3911a7a717e2f4d539786699268c9a9060200161036c565b6020810151518151518291146104d05760405162461bcd60e51b815260206004820152601060248201526f0c8d2cccccae4cadce840d8cadccee8d60831b6044820152606401610286565b600454815151146105235760405162461bcd60e51b815260206004820152601b60248201527f646966666572656e74206465706f7369746f7273206c656e67746800000000006044820152606401610286565b825160005b818110156109bf576000858281518110610544576105446117c7565b60200260200101519050600060036000836001600160a01b03166001600160a01b0316815260200190815260200160002054116105b75760405162461bcd60e51b815260206004820152601160248201527011d85d59d9481b9bdd08195b98589b1959607a1b6044820152606401610286565b60405163224d299d60e11b81523360048201523060248201526001600160a01b0382169063449a533a90604401600060405180830381600087803b1580156105fe57600080fd5b505af1158015610612573d6000803e3d6000fd5b506001925050505b60088110156109ac576040516354c49fe960e01b8152600481018290526000906001600160a01b038416906354c49fe990602401602060405180830381865afa15801561066b573d6000803e3d6000fd5b505050506040513d601f19601f8201168201806040525081019061068f91906117dd565b90506001600160a01b0381166106a557506109ac565b6001600160a01b038181166000818152600160205260408082205490516370a0823160e01b81523060048201529316929091906370a0823190602401602060405180830381865afa1580156106fe573d6000803e3d6000fd5b505050506040513d601f19601f8201168201806040525081019061072291906117fa565b90508015610998576001600160a01b03821615801590610771575087516001600160a01b03831660009081526002602052604090205481518110610768576107686117c7565b60200260200101515b156108dc5760405163095ea7b360e01b81526001600160a01b0383811660048301526024820183905284169063095ea7b3906044016020604051808303816000875af11580156107c5573d6000803e3d6000fd5b505050506040513d601f19601f820116820180604052508101906107e99190611813565b506020808901516001600160a01b038416600090815260029092526040909120548151811061081a5761081a6117c7565b60200260200101511561089b5760405163d0f492f760e01b81526004810182905260006024820152600160448201523360648201526001600160a01b0383169063d0f492f7906084015b600060405180830381600087803b15801561087e57600080fd5b505af1158015610892573d6000803e3d6000fd5b505050506108e7565b60405163d0f492f760e01b81526004810182905260006024820181905260448201523360648201526001600160a01b0383169063d0f492f790608401610864565b6108e7833383611102565b6040516370a0823160e01b81523060048201526000906001600160a01b038516906370a0823190602401602060405180830381865afa15801561092e573d6000803e3d6000fd5b505050506040513d601f19601f8201168201806040525081019061095291906117fa565b905080156109965760405162461bcd60e51b81526020600482015260116024820152701ddc9bdb99c8185b5bdd5b9d081cd95b9d607a1b6044820152606401610286565b505b505050806109a590611797565b905061061a565b5050806109b890611797565b9050610528565b506040516370a0823160e01b81523060048201526000907373968b9a57c6e53d41345fd57a6e6ae27d6cdb2f906370a0823190602401602060405180830381865afa158015610a12573d6000803e3d6000fd5b505050506040513d601f19601f82011682018060405250810190610a3691906117fa565b90508015610c9d5782604001518015610ac457506040516370a0823160e01b8152336004820152600090730c30476f66034e11782938df8e4384970b6c9e8a906370a08231906024016020604051808303816000875af1158015610a9e573d6000803e3d6000fd5b505050506040513d601f19601f82011682018060405250810190610ac291906117fa565b115b15610bca5760405163095ea7b360e01b8152730c30476f66034e11782938df8e4384970b6c9e8a6004820152602481018290527373968b9a57c6e53d41345fd57a6e6ae27d6cdb2f9063095ea7b3906044016020604051808303816000875af1158015610b35573d6000803e3d6000fd5b505050506040513d601f19601f82011682018060405250810190610b599190611813565b50604051631d23139f60e11b815233600482015260248101829052730c30476f66034e11782938df8e4384970b6c9e8a90633a46273e90604401600060405180830381600087803b158015610bad57600080fd5b505af1158015610bc1573d6000803e3d6000fd5b50505050610be9565b610be97373968b9a57c6e53d41345fd57a6e6ae27d6cdb2f3383611102565b6040516370a0823160e01b81523060048201527373968b9a57c6e53d41345fd57a6e6ae27d6cdb2f906370a0823190602401602060405180830381865afa158015610c38573d6000803e3d6000fd5b505050506040513d601f19601f82011682018060405250810190610c5c91906117fa565b15610c9d5760405162461bcd60e51b81526020600482015260116024820152701ddc9bdb99c8185b5bdd5b9d081cd95b9d607a1b6044820152606401610286565b7f6aa3772a6c360399a94a3da6248e7e99e029bce1a1f57c7b90b2bfa3c1aa7f3585604051610ccc9190611830565b60405180910390a15050505050565b6000546001600160a01b03163314610d055760405162461bcd60e51b815260040161028690611734565b6001600160a01b038116610d2b5760405162461bcd60e51b815260040161028690611752565b610d36838284611102565b604080516001600160a01b0385168152602081018490527f8c1256b8896378cd5044f80c202f9772b9d77dc85c8a6eb51967210b09bfaa2891015b60405180910390a1505050565b6000546001600160a01b03163314610da85760405162461bcd60e51b815260040161028690611734565b6001600160a01b038116610dce5760405162461bcd60e51b815260040161028690611752565b600054604080516001600160a01b03928316815291831660208301527f3aaaebeb4821d6a7e5c77ece53cff0afcc56c82add2c978dbbb7f73e84cbcfd2910160405180910390a1600080546001600160a01b0319166001600160a01b0392909216919091179055565b6000546001600160a01b03163314610e615760405162461bcd60e51b815260040161028690611734565b6001600160a01b038216610e875760405162461bcd60e51b815260040161028690611752565b6001600160a01b038116610ead5760405162461bcd60e51b815260040161028690611752565b6001600160a01b038281166000908152600160205260409020541615610f055760405162461bcd60e51b815260206004820152600d60248201526c185b1c9958591e481859191959609a1b6044820152606401610286565b6001600160a01b03828116600090815260016020908152604080832080546001600160a01b0319169486169485179055600480549484526002909252822083905591610f5090611797565b90915550604080516001600160a01b038085168252831660208201527fbf078383c4bd46a14442044440ddb21a1a5b1fb4cc7c907a5826e52689cc9e02910160405180910390a15050565b8060005b818110156110d057600060036000868685818110610fbf57610fbf6117c7565b9050602002016020810190610fd491906113d3565b6001600160a01b03166001600160a01b0316815260200190815260200160002054116110365760405162461bcd60e51b815260206004820152601160248201527011d85d59d9481b9bdd08195b98589b1959607a1b6044820152606401610286565b838382818110611048576110486117c7565b905060200201602081019061105d91906113d3565b60405163224d299d60e11b8152336004820181905260248201526001600160a01b03919091169063449a533a90604401600060405180830381600087803b1580156110a757600080fd5b505af11580156110bb573d6000803e3d6000fd5b50505050806110c990611797565b9050610f9f565b507f6aa3772a6c360399a94a3da6248e7e99e029bce1a1f57c7b90b2bfa3c1aa7f358383604051610d7192919061187d565b604080516001600160a01b038416602482015260448082018490528251808303909101815260649091019091526020810180516001600160e01b031663a9059cbb60e01b179052611154908490611159565b505050565b60006111ae826040518060400160405280602081526020017f5361666545524332303a206c6f772d6c6576656c2063616c6c206661696c6564815250856001600160a01b031661122b9092919063ffffffff16565b80519091501561115457808060200190518101906111cc9190611813565b6111545760405162461bcd60e51b815260206004820152602a60248201527f5361666545524332303a204552433230206f7065726174696f6e20646964206e6044820152691bdd081cdd58d8d9595960b21b6064820152608401610286565b606061123a8484600085611242565b949350505050565b6060824710156112a35760405162461bcd60e51b815260206004820152602660248201527f416464726573733a20696e73756666696369656e742062616c616e636520666f6044820152651c8818d85b1b60d21b6064820152608401610286565b600080866001600160a01b031685876040516112bf91906118e4565b60006040518083038185875af1925050503d80600081146112fc576040519150601f19603f3d011682016040523d82523d6000602084013e611301565b606091505b50915091506113128783838761131d565b979650505050505050565b6060831561138c578251600003611385576001600160a01b0385163b6113855760405162461bcd60e51b815260206004820152601d60248201527f416464726573733a2063616c6c20746f206e6f6e2d636f6e74726163740000006044820152606401610286565b508161123a565b61123a83838151156113a15781518083602001fd5b8060405162461bcd60e51b81526004016102869190611900565b6001600160a01b03811681146113d057600080fd5b50565b6000602082840312156113e557600080fd5b81356113f0816113bb565b9392505050565b634e487b7160e01b600052604160045260246000fd5b604051601f8201601f1916810167ffffffffffffffff81118282101715611436576114366113f7565b604052919050565b600067ffffffffffffffff821115611458576114586113f7565b5060051b60200190565b80151581146113d057600080fd5b600082601f83011261148157600080fd5b813560206114966114918361143e565b61140d565b82815260059290921b840181019181810190868411156114b557600080fd5b8286015b848110156114d95780356114cc81611462565b83529183019183016114b9565b509695505050505050565b6000606082840312156114f657600080fd5b6040516060810167ffffffffffffffff828210818311171561151a5761151a6113f7565b81604052829350843591508082111561153257600080fd5b61153e86838701611470565b8352602085013591508082111561155457600080fd5b5061156185828601611470565b602083015250604083013561157581611462565b6040919091015292915050565b6000806040838503121561159557600080fd5b823567ffffffffffffffff808211156115ad57600080fd5b818501915085601f8301126115c157600080fd5b813560206115d16114918361143e565b82815260059290921b840181019181810190898411156115f057600080fd5b948201945b83861015611617578535611608816113bb565b825294820194908201906115f5565b9650508601359250508082111561162d57600080fd5b5061163a858286016114e4565b9150509250929050565b60008060006060848603121561165957600080fd5b8335611664816113bb565b925060208401359150604084013561167b816113bb565b809150509250925092565b6000806040838503121561169957600080fd5b82356116a4816113bb565b915060208301356116b4816113bb565b809150509250929050565b600080602083850312156116d257600080fd5b823567ffffffffffffffff808211156116ea57600080fd5b818501915085601f8301126116fe57600080fd5b81358181111561170d57600080fd5b8660208260051b850101111561172257600080fd5b60209290920196919550909350505050565b60208082526004908201526310b3b7bb60e11b604082015260600190565b60208082526015908201527463616e2774206265207a65726f206164647265737360581b604082015260600190565b634e487b7160e01b600052601160045260246000fd5b6000600182016117a9576117a9611781565b5060010190565b6000816117bf576117bf611781565b506000190190565b634e487b7160e01b600052603260045260246000fd5b6000602082840312156117ef57600080fd5b81516113f0816113bb565b60006020828403121561180c57600080fd5b5051919050565b60006020828403121561182557600080fd5b81516113f081611462565b6020808252825182820181905260009190848201906040850190845b818110156118715783516001600160a01b03168352928401929184019160010161184c565b50909695505050505050565b60208082528181018390526000908460408401835b868110156114d95782356118a5816113bb565b6001600160a01b031682529183019190830190600101611892565b60005b838110156118db5781810151838201526020016118c3565b50506000910152565b600082516118f68184602087016118c0565b9190910192915050565b602081526000825180602084015261191f8160408501602087016118c0565b601f01601f1916919091016040019291505056fea26469706673582212208ed7c8945158f67b24750cb46e6838908f196706d6009ca69e8fce5676fa944064736f6c63430008110033",
    "linkReferences": {}
  },
  "methodIdentifiers": {
    "SDT()": "ba32c619",
    "addDepositor(address,address)": "e9de65fd",
    "claimAndLock(address[],(bool[],bool[],bool))": "2009c4b1",
    "claimRewards(address[])": "f9f031df",
    "depositors(address)": "eed75f6d",
    "depositorsCount()": "3a561ae2",
    "depositorsIndex(address)": "ca36418b",
    "disableGauge(address)": "084b86fe",
    "enableGauge(address)": "04e29ee9",
    "gauges(address)": "b9a09fd5",
    "governance()": "5aa6e675",
    "rescueERC20(address,uint256,address)": "77662ffc",
    "setGovernance(address)": "ab033ea9",
    "veSDT()": "202d31b7"
  },
  "id": 4
}